{
  "contractName": "CPNToken",
  "abi": [
    {
      "inputs": [
        {
          "internalType": "address",
          "name": "kycContractAddress_",
          "type": "address"
        }
      ],
      "stateMutability": "nonpayable",
      "type": "constructor"
    },
    {
      "inputs": [
        {
          "internalType": "address",
          "name": "spender",
          "type": "address"
        },
        {
          "internalType": "uint256",
          "name": "allowance",
          "type": "uint256"
        },
        {
          "internalType": "uint256",
          "name": "needed",
          "type": "uint256"
        }
      ],
      "name": "ERC20InsufficientAllowance",
      "type": "error"
    },
    {
      "inputs": [
        {
          "internalType": "address",
          "name": "sender",
          "type": "address"
        },
        {
          "internalType": "uint256",
          "name": "balance",
          "type": "uint256"
        },
        {
          "internalType": "uint256",
          "name": "needed",
          "type": "uint256"
        }
      ],
      "name": "ERC20InsufficientBalance",
      "type": "error"
    },
    {
      "inputs": [
        {
          "internalType": "address",
          "name": "approver",
          "type": "address"
        }
      ],
      "name": "ERC20InvalidApprover",
      "type": "error"
    },
    {
      "inputs": [
        {
          "internalType": "address",
          "name": "receiver",
          "type": "address"
        }
      ],
      "name": "ERC20InvalidReceiver",
      "type": "error"
    },
    {
      "inputs": [
        {
          "internalType": "address",
          "name": "sender",
          "type": "address"
        }
      ],
      "name": "ERC20InvalidSender",
      "type": "error"
    },
    {
      "inputs": [
        {
          "internalType": "address",
          "name": "spender",
          "type": "address"
        }
      ],
      "name": "ERC20InvalidSpender",
      "type": "error"
    },
    {
      "inputs": [
        {
          "internalType": "address",
          "name": "owner",
          "type": "address"
        }
      ],
      "name": "OwnableInvalidOwner",
      "type": "error"
    },
    {
      "inputs": [
        {
          "internalType": "address",
          "name": "account",
          "type": "address"
        }
      ],
      "name": "OwnableUnauthorizedAccount",
      "type": "error"
    },
    {
      "anonymous": false,
      "inputs": [
        {
          "indexed": true,
          "internalType": "address",
          "name": "owner",
          "type": "address"
        },
        {
          "indexed": true,
          "internalType": "address",
          "name": "spender",
          "type": "address"
        },
        {
          "indexed": false,
          "internalType": "uint256",
          "name": "value",
          "type": "uint256"
        }
      ],
      "name": "Approval",
      "type": "event"
    },
    {
      "anonymous": false,
      "inputs": [
        {
          "indexed": true,
          "internalType": "address",
          "name": "previousOwner",
          "type": "address"
        },
        {
          "indexed": true,
          "internalType": "address",
          "name": "newOwner",
          "type": "address"
        }
      ],
      "name": "OwnershipTransferred",
      "type": "event"
    },
    {
      "anonymous": false,
      "inputs": [
        {
          "indexed": true,
          "internalType": "address",
          "name": "from",
          "type": "address"
        },
        {
          "indexed": true,
          "internalType": "address",
          "name": "to",
          "type": "address"
        },
        {
          "indexed": false,
          "internalType": "uint256",
          "name": "value",
          "type": "uint256"
        }
      ],
      "name": "Transfer",
      "type": "event"
    },
    {
      "inputs": [
        {
          "internalType": "address",
          "name": "owner",
          "type": "address"
        },
        {
          "internalType": "address",
          "name": "spender",
          "type": "address"
        }
      ],
      "name": "allowance",
      "outputs": [
        {
          "internalType": "uint256",
          "name": "",
          "type": "uint256"
        }
      ],
      "stateMutability": "view",
      "type": "function",
      "constant": true
    },
    {
      "inputs": [
        {
          "internalType": "address",
          "name": "",
          "type": "address"
        }
      ],
      "name": "allowedContracts",
      "outputs": [
        {
          "internalType": "bool",
          "name": "",
          "type": "bool"
        }
      ],
      "stateMutability": "view",
      "type": "function",
      "constant": true
    },
    {
      "inputs": [
        {
          "internalType": "address",
          "name": "spender",
          "type": "address"
        },
        {
          "internalType": "uint256",
          "name": "value",
          "type": "uint256"
        }
      ],
      "name": "approve",
      "outputs": [
        {
          "internalType": "bool",
          "name": "",
          "type": "bool"
        }
      ],
      "stateMutability": "nonpayable",
      "type": "function"
    },
    {
      "inputs": [
        {
          "internalType": "address",
          "name": "account",
          "type": "address"
        }
      ],
      "name": "balanceOf",
      "outputs": [
        {
          "internalType": "uint256",
          "name": "",
          "type": "uint256"
        }
      ],
      "stateMutability": "view",
      "type": "function",
      "constant": true
    },
    {
      "inputs": [],
      "name": "name",
      "outputs": [
        {
          "internalType": "string",
          "name": "",
          "type": "string"
        }
      ],
      "stateMutability": "view",
      "type": "function",
      "constant": true
    },
    {
      "inputs": [],
      "name": "owner",
      "outputs": [
        {
          "internalType": "address",
          "name": "",
          "type": "address"
        }
      ],
      "stateMutability": "view",
      "type": "function",
      "constant": true
    },
    {
      "inputs": [],
      "name": "renounceOwnership",
      "outputs": [],
      "stateMutability": "nonpayable",
      "type": "function"
    },
    {
      "inputs": [],
      "name": "symbol",
      "outputs": [
        {
          "internalType": "string",
          "name": "",
          "type": "string"
        }
      ],
      "stateMutability": "view",
      "type": "function",
      "constant": true
    },
    {
      "inputs": [],
      "name": "totalSupply",
      "outputs": [
        {
          "internalType": "uint256",
          "name": "",
          "type": "uint256"
        }
      ],
      "stateMutability": "view",
      "type": "function",
      "constant": true
    },
    {
      "inputs": [
        {
          "internalType": "address",
          "name": "to",
          "type": "address"
        },
        {
          "internalType": "uint256",
          "name": "value",
          "type": "uint256"
        }
      ],
      "name": "transfer",
      "outputs": [
        {
          "internalType": "bool",
          "name": "",
          "type": "bool"
        }
      ],
      "stateMutability": "nonpayable",
      "type": "function"
    },
    {
      "inputs": [
        {
          "internalType": "address",
          "name": "from",
          "type": "address"
        },
        {
          "internalType": "address",
          "name": "to",
          "type": "address"
        },
        {
          "internalType": "uint256",
          "name": "value",
          "type": "uint256"
        }
      ],
      "name": "transferFrom",
      "outputs": [
        {
          "internalType": "bool",
          "name": "",
          "type": "bool"
        }
      ],
      "stateMutability": "nonpayable",
      "type": "function"
    },
    {
      "inputs": [
        {
          "internalType": "address",
          "name": "newOwner",
          "type": "address"
        }
      ],
      "name": "transferOwnership",
      "outputs": [],
      "stateMutability": "nonpayable",
      "type": "function"
    },
    {
      "inputs": [],
      "name": "decimals",
      "outputs": [
        {
          "internalType": "uint8",
          "name": "",
          "type": "uint8"
        }
      ],
      "stateMutability": "pure",
      "type": "function",
      "constant": true
    },
    {
      "inputs": [
        {
          "internalType": "address",
          "name": "_contract",
          "type": "address"
        }
      ],
      "name": "addAllowedContract",
      "outputs": [],
      "stateMutability": "nonpayable",
      "type": "function"
    },
    {
      "inputs": [
        {
          "internalType": "address",
          "name": "_contract",
          "type": "address"
        }
      ],
      "name": "removeAllowedContract",
      "outputs": [],
      "stateMutability": "nonpayable",
      "type": "function"
    },
    {
      "inputs": [
        {
          "internalType": "address",
          "name": "to",
          "type": "address"
        },
        {
          "internalType": "uint256",
          "name": "amount",
          "type": "uint256"
        }
      ],
      "name": "mint",
      "outputs": [],
      "stateMutability": "nonpayable",
      "type": "function"
    },
    {
      "inputs": [],
      "name": "ListOfEnabledHobbyUploaders",
      "outputs": [
        {
          "internalType": "address[]",
          "name": "",
          "type": "address[]"
        }
      ],
      "stateMutability": "view",
      "type": "function",
      "constant": true
    }
  ],
  "bytecode": "0x608060405234801562000010575f80fd5b50604051620020ad380380620020ad8339818101604052810190620000369190620002bd565b336040518060400160405280600981526020017f43504e20546f6b656e00000000000000000000000000000000000000000000008152506040518060400160405280600381526020017f43504e00000000000000000000000000000000000000000000000000000000008152508160039081620000b4919062000551565b508060049081620000c6919062000551565b5050505f73ffffffffffffffffffffffffffffffffffffffff168173ffffffffffffffffffffffffffffffffffffffff16036200013c575f6040517f1e4fbdf700000000000000000000000000000000000000000000000000000000815260040162000133919062000646565b60405180910390fd5b6200014d816200019560201b60201c565b508060085f6101000a81548173ffffffffffffffffffffffffffffffffffffffff021916908373ffffffffffffffffffffffffffffffffffffffff1602179055505062000661565b5f60055f9054906101000a900473ffffffffffffffffffffffffffffffffffffffff1690508160055f6101000a81548173ffffffffffffffffffffffffffffffffffffffff021916908373ffffffffffffffffffffffffffffffffffffffff1602179055508173ffffffffffffffffffffffffffffffffffffffff168173ffffffffffffffffffffffffffffffffffffffff167f8be0079c531659141344cd1fd0a4f28419497f9722a3daafe3b4186f6b6457e060405160405180910390a35050565b5f80fd5b5f73ffffffffffffffffffffffffffffffffffffffff82169050919050565b5f62000287826200025c565b9050919050565b62000299816200027b565b8114620002a4575f80fd5b50565b5f81519050620002b7816200028e565b92915050565b5f60208284031215620002d557620002d462000258565b5b5f620002e484828501620002a7565b91505092915050565b5f81519050919050565b7f4e487b71000000000000000000000000000000000000000000000000000000005f52604160045260245ffd5b7f4e487b71000000000000000000000000000000000000000000000000000000005f52602260045260245ffd5b5f60028204905060018216806200036957607f821691505b6020821081036200037f576200037e62000324565b5b50919050565b5f819050815f5260205f209050919050565b5f6020601f8301049050919050565b5f82821b905092915050565b5f60088302620003e37fffffffffffffffffffffffffffffffffffffffffffffffffffffffffffffffff82620003a6565b620003ef8683620003a6565b95508019841693508086168417925050509392505050565b5f819050919050565b5f819050919050565b5f62000439620004336200042d8462000407565b62000410565b62000407565b9050919050565b5f819050919050565b620004548362000419565b6200046c620004638262000440565b848454620003b2565b825550505050565b5f90565b6200048262000474565b6200048f81848462000449565b505050565b5b81811015620004b657620004aa5f8262000478565b60018101905062000495565b5050565b601f8211156200050557620004cf8162000385565b620004da8462000397565b81016020851015620004ea578190505b62000502620004f98562000397565b83018262000494565b50505b505050565b5f82821c905092915050565b5f620005275f19846008026200050a565b1980831691505092915050565b5f62000541838362000516565b9150826002028217905092915050565b6200055c82620002ed565b67ffffffffffffffff811115620005785762000577620002f7565b5b62000584825462000351565b62000591828285620004ba565b5f60209050601f831160018114620005c7575f8415620005b2578287015190505b620005be858262000534565b8655506200062d565b601f198416620005d78662000385565b5f5b828110156200060057848901518255600182019150602085019450602081019050620005d9565b868310156200062057848901516200061c601f89168262000516565b8355505b6001600288020188555050505b505050505050565b62000640816200027b565b82525050565b5f6020820190506200065b5f83018462000635565b92915050565b611a3e806200066f5f395ff3fe608060405234801561000f575f80fd5b5060043610610109575f3560e01c806370a08231116100a05780639800fc161161006f5780639800fc16146102a5578063a9059cbb146102c1578063dd62ed3e146102f1578063f2e3fa8114610321578063f2fde38b1461033f57610109565b806370a082311461022f578063715018a61461025f5780638da5cb5b1461026957806395d89b411461028757610109565b80632c56462f116100dc5780632c56462f146101a9578063313ce567146101c557806340c10f19146101e357806351e0e26b146101ff57610109565b806306fdde031461010d578063095ea7b31461012b57806318160ddd1461015b57806323b872dd14610179575b5f80fd5b61011561035b565b60405161012291906113c1565b60405180910390f35b61014560048036038101906101409190611472565b6103eb565b60405161015291906114ca565b60405180910390f35b61016361040d565b60405161017091906114f2565b60405180910390f35b610193600480360381019061018e919061150b565b610416565b6040516101a091906114ca565b60405180910390f35b6101c360048036038101906101be919061155b565b610444565b005b6101cd610553565b6040516101da91906115a1565b60405180910390f35b6101fd60048036038101906101f89190611472565b610557565b005b6102196004803603810190610214919061155b565b6106d0565b60405161022691906114ca565b60405180910390f35b6102496004803603810190610244919061155b565b6106ed565b60405161025691906114f2565b60405180910390f35b610267610732565b005b610271610745565b60405161027e91906115c9565b60405180910390f35b61028f61076d565b60405161029c91906113c1565b60405180910390f35b6102bf60048036038101906102ba919061155b565b6107fd565b005b6102db60048036038101906102d69190611472565b6108b5565b6040516102e891906114ca565b60405180910390f35b61030b600480360381019061030691906115e2565b6108d7565b60405161031891906114f2565b60405180910390f35b610329610959565b60405161033691906116d7565b60405180910390f35b6103596004803603810190610354919061155b565b6109e4565b005b60606003805461036a90611724565b80601f016020809104026020016040519081016040528092919081815260200182805461039690611724565b80156103e15780601f106103b8576101008083540402835291602001916103e1565b820191905f5260205f20905b8154815290600101906020018083116103c457829003601f168201915b5050505050905090565b5f806103f5610a68565b9050610402818585610a6f565b600191505092915050565b5f600254905090565b5f80610420610a68565b905061042d858285610a81565b610438858585610b13565b60019150509392505050565b61044c610c03565b60065f8273ffffffffffffffffffffffffffffffffffffffff1673ffffffffffffffffffffffffffffffffffffffff1681526020019081526020015f205f9054906101000a900460ff1661055057600160065f8373ffffffffffffffffffffffffffffffffffffffff1673ffffffffffffffffffffffffffffffffffffffff1681526020019081526020015f205f6101000a81548160ff021916908315150217905550600781908060018154018082558091505060019003905f5260205f20015f9091909190916101000a81548173ffffffffffffffffffffffffffffffffffffffff021916908373ffffffffffffffffffffffffffffffffffffffff1602179055505b50565b5f90565b60065f3373ffffffffffffffffffffffffffffffffffffffff1673ffffffffffffffffffffffffffffffffffffffff1681526020019081526020015f205f9054906101000a900460ff166105e0576040517f08c379a00000000000000000000000000000000000000000000000000000000081526004016105d79061179e565b60405180910390fd5b60085f9054906101000a900473ffffffffffffffffffffffffffffffffffffffff1673ffffffffffffffffffffffffffffffffffffffff166376db337f836040518263ffffffff1660e01b815260040161063a91906115c9565b602060405180830381865afa158015610655573d5f803e3d5ffd5b505050506040513d601f19601f8201168201806040525081019061067991906117e6565b6106c25760058111156106c1576040517f08c379a00000000000000000000000000000000000000000000000000000000081526004016106b890611881565b60405180910390fd5b5b6106cc8282610c8a565b5050565b6006602052805f5260405f205f915054906101000a900460ff1681565b5f805f8373ffffffffffffffffffffffffffffffffffffffff1673ffffffffffffffffffffffffffffffffffffffff1681526020019081526020015f20549050919050565b61073a610c03565b6107435f610d09565b565b5f60055f9054906101000a900473ffffffffffffffffffffffffffffffffffffffff16905090565b60606004805461077c90611724565b80601f01602080910402602001604051908101604052809291908181526020018280546107a890611724565b80156107f35780601f106107ca576101008083540402835291602001916107f3565b820191905f5260205f20905b8154815290600101906020018083116107d657829003601f168201915b5050505050905090565b610805610c03565b60065f8273ffffffffffffffffffffffffffffffffffffffff1673ffffffffffffffffffffffffffffffffffffffff1681526020019081526020015f205f9054906101000a900460ff16156108b2575f60065f8373ffffffffffffffffffffffffffffffffffffffff1673ffffffffffffffffffffffffffffffffffffffff1681526020019081526020015f205f6101000a81548160ff0219169083151502179055506108b181610dcc565b5b50565b5f806108bf610a68565b90506108cc818585610b13565b600191505092915050565b5f60015f8473ffffffffffffffffffffffffffffffffffffffff1673ffffffffffffffffffffffffffffffffffffffff1681526020019081526020015f205f8373ffffffffffffffffffffffffffffffffffffffff1673ffffffffffffffffffffffffffffffffffffffff1681526020019081526020015f2054905092915050565b606060078054806020026020016040519081016040528092919081815260200182805480156109da57602002820191905f5260205f20905b815f9054906101000a900473ffffffffffffffffffffffffffffffffffffffff1673ffffffffffffffffffffffffffffffffffffffff1681526020019060010190808311610991575b5050505050905090565b6109ec610c03565b5f73ffffffffffffffffffffffffffffffffffffffff168173ffffffffffffffffffffffffffffffffffffffff1603610a5c575f6040517f1e4fbdf7000000000000000000000000000000000000000000000000000000008152600401610a5391906115c9565b60405180910390fd5b610a6581610d09565b50565b5f33905090565b610a7c8383836001610f4f565b505050565b5f610a8c84846108d7565b90507fffffffffffffffffffffffffffffffffffffffffffffffffffffffffffffffff8114610b0d5781811015610afe578281836040517ffb8f41b2000000000000000000000000000000000000000000000000000000008152600401610af59392919061189f565b60405180910390fd5b610b0c84848484035f610f4f565b5b50505050565b5f73ffffffffffffffffffffffffffffffffffffffff168373ffffffffffffffffffffffffffffffffffffffff1603610b83575f6040517f96c6fd1e000000000000000000000000000000000000000000000000000000008152600401610b7a91906115c9565b60405180910390fd5b5f73ffffffffffffffffffffffffffffffffffffffff168273ffffffffffffffffffffffffffffffffffffffff1603610bf3575f6040517fec442f05000000000000000000000000000000000000000000000000000000008152600401610bea91906115c9565b60405180910390fd5b610bfe83838361111e565b505050565b610c0b610a68565b73ffffffffffffffffffffffffffffffffffffffff16610c29610745565b73ffffffffffffffffffffffffffffffffffffffff1614610c8857610c4c610a68565b6040517f118cdaa7000000000000000000000000000000000000000000000000000000008152600401610c7f91906115c9565b60405180910390fd5b565b5f73ffffffffffffffffffffffffffffffffffffffff168273ffffffffffffffffffffffffffffffffffffffff1603610cfa575f6040517fec442f05000000000000000000000000000000000000000000000000000000008152600401610cf191906115c9565b60405180910390fd5b610d055f838361111e565b5050565b5f60055f9054906101000a900473ffffffffffffffffffffffffffffffffffffffff1690508160055f6101000a81548173ffffffffffffffffffffffffffffffffffffffff021916908373ffffffffffffffffffffffffffffffffffffffff1602179055508173ffffffffffffffffffffffffffffffffffffffff168173ffffffffffffffffffffffffffffffffffffffff167f8be0079c531659141344cd1fd0a4f28419497f9722a3daafe3b4186f6b6457e060405160405180910390a35050565b5f60078054905090505f5b81811015610f4a578273ffffffffffffffffffffffffffffffffffffffff1660078281548110610e0a57610e096118d4565b5b905f5260205f20015f9054906101000a900473ffffffffffffffffffffffffffffffffffffffff1673ffffffffffffffffffffffffffffffffffffffff1603610f37576007600183610e5c919061192e565b81548110610e6d57610e6c6118d4565b5b905f5260205f20015f9054906101000a900473ffffffffffffffffffffffffffffffffffffffff1660078281548110610ea957610ea86118d4565b5b905f5260205f20015f6101000a81548173ffffffffffffffffffffffffffffffffffffffff021916908373ffffffffffffffffffffffffffffffffffffffff1602179055506007805480610f0057610eff611961565b5b600190038181905f5260205f20015f6101000a81549073ffffffffffffffffffffffffffffffffffffffff02191690559055610f4a565b8080610f429061198e565b915050610dd7565b505050565b5f73ffffffffffffffffffffffffffffffffffffffff168473ffffffffffffffffffffffffffffffffffffffff1603610fbf575f6040517fe602df05000000000000000000000000000000000000000000000000000000008152600401610fb691906115c9565b60405180910390fd5b5f73ffffffffffffffffffffffffffffffffffffffff168373ffffffffffffffffffffffffffffffffffffffff160361102f575f6040517f94280d6200000000000000000000000000000000000000000000000000000000815260040161102691906115c9565b60405180910390fd5b8160015f8673ffffffffffffffffffffffffffffffffffffffff1673ffffffffffffffffffffffffffffffffffffffff1681526020019081526020015f205f8573ffffffffffffffffffffffffffffffffffffffff1673ffffffffffffffffffffffffffffffffffffffff1681526020019081526020015f20819055508015611118578273ffffffffffffffffffffffffffffffffffffffff168473ffffffffffffffffffffffffffffffffffffffff167f8c5be1e5ebec7d5bd14f71427d1e84f3dd0314c0f7b2291e5b200ac8c7c3b9258460405161110f91906114f2565b60405180910390a35b50505050565b5f73ffffffffffffffffffffffffffffffffffffffff168373ffffffffffffffffffffffffffffffffffffffff160361116e578060025f82825461116291906119d5565b9250508190555061123c565b5f805f8573ffffffffffffffffffffffffffffffffffffffff1673ffffffffffffffffffffffffffffffffffffffff1681526020019081526020015f20549050818110156111f7578381836040517fe450d38c0000000000000000000000000000000000000000000000000000000081526004016111ee9392919061189f565b60405180910390fd5b8181035f808673ffffffffffffffffffffffffffffffffffffffff1673ffffffffffffffffffffffffffffffffffffffff1681526020019081526020015f2081905550505b5f73ffffffffffffffffffffffffffffffffffffffff168273ffffffffffffffffffffffffffffffffffffffff1603611283578060025f82825403925050819055506112cd565b805f808473ffffffffffffffffffffffffffffffffffffffff1673ffffffffffffffffffffffffffffffffffffffff1681526020019081526020015f205f82825401925050819055505b8173ffffffffffffffffffffffffffffffffffffffff168373ffffffffffffffffffffffffffffffffffffffff167fddf252ad1be2c89b69c2b068fc378daa952ba7f163c4a11628f55a4df523b3ef8360405161132a91906114f2565b60405180910390a3505050565b5f81519050919050565b5f82825260208201905092915050565b5f5b8381101561136e578082015181840152602081019050611353565b5f8484015250505050565b5f601f19601f8301169050919050565b5f61139382611337565b61139d8185611341565b93506113ad818560208601611351565b6113b681611379565b840191505092915050565b5f6020820190508181035f8301526113d98184611389565b905092915050565b5f80fd5b5f73ffffffffffffffffffffffffffffffffffffffff82169050919050565b5f61140e826113e5565b9050919050565b61141e81611404565b8114611428575f80fd5b50565b5f8135905061143981611415565b92915050565b5f819050919050565b6114518161143f565b811461145b575f80fd5b50565b5f8135905061146c81611448565b92915050565b5f8060408385031215611488576114876113e1565b5b5f6114958582860161142b565b92505060206114a68582860161145e565b9150509250929050565b5f8115159050919050565b6114c4816114b0565b82525050565b5f6020820190506114dd5f8301846114bb565b92915050565b6114ec8161143f565b82525050565b5f6020820190506115055f8301846114e3565b92915050565b5f805f60608486031215611522576115216113e1565b5b5f61152f8682870161142b565b93505060206115408682870161142b565b92505060406115518682870161145e565b9150509250925092565b5f602082840312156115705761156f6113e1565b5b5f61157d8482850161142b565b91505092915050565b5f60ff82169050919050565b61159b81611586565b82525050565b5f6020820190506115b45f830184611592565b92915050565b6115c381611404565b82525050565b5f6020820190506115dc5f8301846115ba565b92915050565b5f80604083850312156115f8576115f76113e1565b5b5f6116058582860161142b565b92505060206116168582860161142b565b9150509250929050565b5f81519050919050565b5f82825260208201905092915050565b5f819050602082019050919050565b61165281611404565b82525050565b5f6116638383611649565b60208301905092915050565b5f602082019050919050565b5f61168582611620565b61168f818561162a565b935061169a8361163a565b805f5b838110156116ca5781516116b18882611658565b97506116bc8361166f565b92505060018101905061169d565b5085935050505092915050565b5f6020820190508181035f8301526116ef818461167b565b905092915050565b7f4e487b71000000000000000000000000000000000000000000000000000000005f52602260045260245ffd5b5f600282049050600182168061173b57607f821691505b60208210810361174e5761174d6116f7565b5b50919050565b7f43616c6c6572206973206e6f7420617574686f72697a656400000000000000005f82015250565b5f611788601883611341565b915061179382611754565b602082019050919050565b5f6020820190508181035f8301526117b58161177c565b9050919050565b6117c5816114b0565b81146117cf575f80fd5b50565b5f815190506117e0816117bc565b92915050565b5f602082840312156117fb576117fa6113e1565b5b5f611808848285016117d2565b91505092915050565b7f596f75206d7573742070617373204b594320746f20676574206d6f72652074685f8201527f616e203520746f6b656e73000000000000000000000000000000000000000000602082015250565b5f61186b602b83611341565b915061187682611811565b604082019050919050565b5f6020820190508181035f8301526118988161185f565b9050919050565b5f6060820190506118b25f8301866115ba565b6118bf60208301856114e3565b6118cc60408301846114e3565b949350505050565b7f4e487b71000000000000000000000000000000000000000000000000000000005f52603260045260245ffd5b7f4e487b71000000000000000000000000000000000000000000000000000000005f52601160045260245ffd5b5f6119388261143f565b91506119438361143f565b925082820390508181111561195b5761195a611901565b5b92915050565b7f4e487b71000000000000000000000000000000000000000000000000000000005f52603160045260245ffd5b5f6119988261143f565b91507fffffffffffffffffffffffffffffffffffffffffffffffffffffffffffffffff82036119ca576119c9611901565b5b600182019050919050565b5f6119df8261143f565b91506119ea8361143f565b9250828201905080821115611a0257611a01611901565b5b9291505056fea26469706673582212202761ceeaf78e69b724342d156e70420cec9db4444cb7305679c0df8881837b8464736f6c63430008140033",
  "immutableReferences": {},
  "source": "// SPDX-License-Identifier: UNLICENSED\npragma solidity ^0.8.0;\n\nimport \"./KYC.sol\";\nimport \"@openzeppelin/contracts/token/ERC20/ERC20.sol\";\nimport \"@openzeppelin/contracts/access/Ownable.sol\";\n\ncontract CPNToken is ERC20, Ownable {\n    mapping(address => bool) public allowedContracts;\n    address[] private enabledHobbyUploaders;\n    address private kycContractAddress;\n\n    constructor(address kycContractAddress_) ERC20(\"CPN Token\", \"CPN\") Ownable(msg.sender){\n        kycContractAddress = kycContractAddress_;\n    }\n\n    function decimals() public pure override returns (uint8) {\n        return 0;\n    }\n\n    function addAllowedContract(address _contract) public onlyOwner {\n        if (!allowedContracts[_contract]) {\n            allowedContracts[_contract] = true;\n            enabledHobbyUploaders.push(_contract);\n        }\n    }\n\n    function removeAllowedContract(address _contract) public onlyOwner {\n        if (allowedContracts[_contract]) {\n            allowedContracts[_contract] = false;\n            removeAddress(_contract);\n        }\n    }\n\n    function removeAddress(address _contract) private {\n        uint length = enabledHobbyUploaders.length;\n        for (uint i = 0; i < length; i++) {\n            if (enabledHobbyUploaders[i] == _contract) {\n                enabledHobbyUploaders[i] = enabledHobbyUploaders[length - 1];\n                enabledHobbyUploaders.pop();\n                break;\n            }\n        }\n    }\n\n    function mint(address to, uint256 amount) external {\n        require(allowedContracts[msg.sender], \"Caller is not authorized\");\n        if (!KYC(kycContractAddress).IsKYCPassed(to)) { // because\n            require(amount <= 5, \"You must pass KYC to get more than 5 tokens\");\n        }\n        /*\n        TODO: think about mint limiting by\n            - daily limits\n        */\n        _mint(to, amount);\n    }\n\n    function ListOfEnabledHobbyUploaders() public view returns (address[] memory) {\n        return enabledHobbyUploaders;\n    }\n}\n",
  "sourcePath": "/Users/andrei/MyDapp/contracts/CPNToken.sol",
  "compiler": {
    "name": "solc",
    "version": "0.8.20+commit.a1b79de6.Emscripten.clang"
  },
  "schemaVersion": "3.4.14",
  "updatedAt": "2024-04-21T07:22:18.991Z",
  "networkType": "ethereum",
  "devdoc": {
    "errors": {
      "ERC20InsufficientAllowance(address,uint256,uint256)": [
        {
          "details": "Indicates a failure with the `spender`s `allowance`. Used in transfers.",
          "params": {
            "allowance": "Amount of tokens a `spender` is allowed to operate with.",
            "needed": "Minimum amount required to perform a transfer.",
            "spender": "Address that may be allowed to operate on tokens without being their owner."
          }
        }
      ],
      "ERC20InsufficientBalance(address,uint256,uint256)": [
        {
          "details": "Indicates an error related to the current `balance` of a `sender`. Used in transfers.",
          "params": {
            "balance": "Current balance for the interacting account.",
            "needed": "Minimum amount required to perform a transfer.",
            "sender": "Address whose tokens are being transferred."
          }
        }
      ],
      "ERC20InvalidApprover(address)": [
        {
          "details": "Indicates a failure with the `approver` of a token to be approved. Used in approvals.",
          "params": {
            "approver": "Address initiating an approval operation."
          }
        }
      ],
      "ERC20InvalidReceiver(address)": [
        {
          "details": "Indicates a failure with the token `receiver`. Used in transfers.",
          "params": {
            "receiver": "Address to which tokens are being transferred."
          }
        }
      ],
      "ERC20InvalidSender(address)": [
        {
          "details": "Indicates a failure with the token `sender`. Used in transfers.",
          "params": {
            "sender": "Address whose tokens are being transferred."
          }
        }
      ],
      "ERC20InvalidSpender(address)": [
        {
          "details": "Indicates a failure with the `spender` to be approved. Used in approvals.",
          "params": {
            "spender": "Address that may be allowed to operate on tokens without being their owner."
          }
        }
      ],
      "OwnableInvalidOwner(address)": [
        {
          "details": "The owner is not a valid owner account. (eg. `address(0)`)"
        }
      ],
      "OwnableUnauthorizedAccount(address)": [
        {
          "details": "The caller account is not authorized to perform an operation."
        }
      ]
    },
    "events": {
      "Approval(address,address,uint256)": {
        "details": "Emitted when the allowance of a `spender` for an `owner` is set by a call to {approve}. `value` is the new allowance."
      },
      "Transfer(address,address,uint256)": {
        "details": "Emitted when `value` tokens are moved from one account (`from`) to another (`to`). Note that `value` may be zero."
      }
    },
    "kind": "dev",
    "methods": {
      "allowance(address,address)": {
        "details": "See {IERC20-allowance}."
      },
      "approve(address,uint256)": {
        "details": "See {IERC20-approve}. NOTE: If `value` is the maximum `uint256`, the allowance is not updated on `transferFrom`. This is semantically equivalent to an infinite approval. Requirements: - `spender` cannot be the zero address."
      },
      "balanceOf(address)": {
        "details": "See {IERC20-balanceOf}."
      },
      "decimals()": {
        "details": "Returns the number of decimals used to get its user representation. For example, if `decimals` equals `2`, a balance of `505` tokens should be displayed to a user as `5.05` (`505 / 10 ** 2`). Tokens usually opt for a value of 18, imitating the relationship between Ether and Wei. This is the default value returned by this function, unless it's overridden. NOTE: This information is only used for _display_ purposes: it in no way affects any of the arithmetic of the contract, including {IERC20-balanceOf} and {IERC20-transfer}."
      },
      "name()": {
        "details": "Returns the name of the token."
      },
      "owner()": {
        "details": "Returns the address of the current owner."
      },
      "renounceOwnership()": {
        "details": "Leaves the contract without owner. It will not be possible to call `onlyOwner` functions. Can only be called by the current owner. NOTE: Renouncing ownership will leave the contract without an owner, thereby disabling any functionality that is only available to the owner."
      },
      "symbol()": {
        "details": "Returns the symbol of the token, usually a shorter version of the name."
      },
      "totalSupply()": {
        "details": "See {IERC20-totalSupply}."
      },
      "transfer(address,uint256)": {
        "details": "See {IERC20-transfer}. Requirements: - `to` cannot be the zero address. - the caller must have a balance of at least `value`."
      },
      "transferFrom(address,address,uint256)": {
        "details": "See {IERC20-transferFrom}. Emits an {Approval} event indicating the updated allowance. This is not required by the EIP. See the note at the beginning of {ERC20}. NOTE: Does not update the allowance if the current allowance is the maximum `uint256`. Requirements: - `from` and `to` cannot be the zero address. - `from` must have a balance of at least `value`. - the caller must have allowance for ``from``'s tokens of at least `value`."
      },
      "transferOwnership(address)": {
        "details": "Transfers ownership of the contract to a new account (`newOwner`). Can only be called by the current owner."
      }
    },
    "version": 1
  },
  "userdoc": {
    "kind": "user",
    "methods": {},
    "version": 1
  }
}