{
  "contractName": "StepsCounter",
  "abi": [
    {
      "inputs": [],
      "stateMutability": "nonpayable",
      "type": "constructor"
    },
    {
      "inputs": [
        {
          "internalType": "address",
          "name": "spender",
          "type": "address"
        },
        {
          "internalType": "uint256",
          "name": "allowance",
          "type": "uint256"
        },
        {
          "internalType": "uint256",
          "name": "needed",
          "type": "uint256"
        }
      ],
      "name": "ERC20InsufficientAllowance",
      "type": "error"
    },
    {
      "inputs": [
        {
          "internalType": "address",
          "name": "sender",
          "type": "address"
        },
        {
          "internalType": "uint256",
          "name": "balance",
          "type": "uint256"
        },
        {
          "internalType": "uint256",
          "name": "needed",
          "type": "uint256"
        }
      ],
      "name": "ERC20InsufficientBalance",
      "type": "error"
    },
    {
      "inputs": [
        {
          "internalType": "address",
          "name": "approver",
          "type": "address"
        }
      ],
      "name": "ERC20InvalidApprover",
      "type": "error"
    },
    {
      "inputs": [
        {
          "internalType": "address",
          "name": "receiver",
          "type": "address"
        }
      ],
      "name": "ERC20InvalidReceiver",
      "type": "error"
    },
    {
      "inputs": [
        {
          "internalType": "address",
          "name": "sender",
          "type": "address"
        }
      ],
      "name": "ERC20InvalidSender",
      "type": "error"
    },
    {
      "inputs": [
        {
          "internalType": "address",
          "name": "spender",
          "type": "address"
        }
      ],
      "name": "ERC20InvalidSpender",
      "type": "error"
    },
    {
      "inputs": [
        {
          "internalType": "address",
          "name": "owner",
          "type": "address"
        }
      ],
      "name": "OwnableInvalidOwner",
      "type": "error"
    },
    {
      "inputs": [
        {
          "internalType": "address",
          "name": "account",
          "type": "address"
        }
      ],
      "name": "OwnableUnauthorizedAccount",
      "type": "error"
    },
    {
      "anonymous": false,
      "inputs": [
        {
          "indexed": true,
          "internalType": "address",
          "name": "owner",
          "type": "address"
        },
        {
          "indexed": true,
          "internalType": "address",
          "name": "spender",
          "type": "address"
        },
        {
          "indexed": false,
          "internalType": "uint256",
          "name": "value",
          "type": "uint256"
        }
      ],
      "name": "Approval",
      "type": "event"
    },
    {
      "anonymous": false,
      "inputs": [
        {
          "indexed": true,
          "internalType": "address",
          "name": "previousOwner",
          "type": "address"
        },
        {
          "indexed": true,
          "internalType": "address",
          "name": "newOwner",
          "type": "address"
        }
      ],
      "name": "OwnershipTransferred",
      "type": "event"
    },
    {
      "anonymous": false,
      "inputs": [
        {
          "indexed": true,
          "internalType": "address",
          "name": "from",
          "type": "address"
        },
        {
          "indexed": true,
          "internalType": "address",
          "name": "to",
          "type": "address"
        },
        {
          "indexed": false,
          "internalType": "uint256",
          "name": "value",
          "type": "uint256"
        }
      ],
      "name": "Transfer",
      "type": "event"
    },
    {
      "inputs": [
        {
          "internalType": "uint256",
          "name": "amount",
          "type": "uint256"
        }
      ],
      "name": "ConvertTokens",
      "outputs": [],
      "stateMutability": "nonpayable",
      "type": "function"
    },
    {
      "inputs": [
        {
          "internalType": "address",
          "name": "hobbyist",
          "type": "address"
        }
      ],
      "name": "GetActivityCount",
      "outputs": [
        {
          "internalType": "uint256",
          "name": "",
          "type": "uint256"
        }
      ],
      "stateMutability": "view",
      "type": "function",
      "constant": true
    },
    {
      "inputs": [],
      "name": "GetRate",
      "outputs": [
        {
          "internalType": "uint256",
          "name": "",
          "type": "uint256"
        }
      ],
      "stateMutability": "nonpayable",
      "type": "function"
    },
    {
      "inputs": [
        {
          "internalType": "address",
          "name": "hobbyist",
          "type": "address"
        }
      ],
      "name": "GetTotalActivityCount",
      "outputs": [
        {
          "internalType": "uint256",
          "name": "",
          "type": "uint256"
        }
      ],
      "stateMutability": "view",
      "type": "function",
      "constant": true
    },
    {
      "inputs": [
        {
          "internalType": "uint256",
          "name": "value",
          "type": "uint256"
        }
      ],
      "name": "UpdateRate",
      "outputs": [],
      "stateMutability": "nonpayable",
      "type": "function"
    },
    {
      "inputs": [
        {
          "internalType": "address",
          "name": "hobbyist",
          "type": "address"
        },
        {
          "internalType": "uint256",
          "name": "activity",
          "type": "uint256"
        }
      ],
      "name": "UploadStatistics",
      "outputs": [],
      "stateMutability": "nonpayable",
      "type": "function"
    },
    {
      "inputs": [
        {
          "internalType": "address",
          "name": "owner",
          "type": "address"
        },
        {
          "internalType": "address",
          "name": "spender",
          "type": "address"
        }
      ],
      "name": "allowance",
      "outputs": [
        {
          "internalType": "uint256",
          "name": "",
          "type": "uint256"
        }
      ],
      "stateMutability": "view",
      "type": "function",
      "constant": true
    },
    {
      "inputs": [
        {
          "internalType": "address",
          "name": "spender",
          "type": "address"
        },
        {
          "internalType": "uint256",
          "name": "value",
          "type": "uint256"
        }
      ],
      "name": "approve",
      "outputs": [
        {
          "internalType": "bool",
          "name": "",
          "type": "bool"
        }
      ],
      "stateMutability": "nonpayable",
      "type": "function"
    },
    {
      "inputs": [
        {
          "internalType": "address",
          "name": "account",
          "type": "address"
        }
      ],
      "name": "balanceOf",
      "outputs": [
        {
          "internalType": "uint256",
          "name": "",
          "type": "uint256"
        }
      ],
      "stateMutability": "view",
      "type": "function",
      "constant": true
    },
    {
      "inputs": [],
      "name": "decimals",
      "outputs": [
        {
          "internalType": "uint8",
          "name": "",
          "type": "uint8"
        }
      ],
      "stateMutability": "pure",
      "type": "function",
      "constant": true
    },
    {
      "inputs": [],
      "name": "name",
      "outputs": [
        {
          "internalType": "string",
          "name": "",
          "type": "string"
        }
      ],
      "stateMutability": "view",
      "type": "function",
      "constant": true
    },
    {
      "inputs": [],
      "name": "owner",
      "outputs": [
        {
          "internalType": "address",
          "name": "",
          "type": "address"
        }
      ],
      "stateMutability": "view",
      "type": "function",
      "constant": true
    },
    {
      "inputs": [],
      "name": "renounceOwnership",
      "outputs": [],
      "stateMutability": "nonpayable",
      "type": "function"
    },
    {
      "inputs": [
        {
          "internalType": "address",
          "name": "address_",
          "type": "address"
        }
      ],
      "name": "setCPN",
      "outputs": [],
      "stateMutability": "nonpayable",
      "type": "function"
    },
    {
      "inputs": [],
      "name": "symbol",
      "outputs": [
        {
          "internalType": "string",
          "name": "",
          "type": "string"
        }
      ],
      "stateMutability": "view",
      "type": "function",
      "constant": true
    },
    {
      "inputs": [],
      "name": "totalSupply",
      "outputs": [
        {
          "internalType": "uint256",
          "name": "",
          "type": "uint256"
        }
      ],
      "stateMutability": "view",
      "type": "function",
      "constant": true
    },
    {
      "inputs": [
        {
          "internalType": "address",
          "name": "to",
          "type": "address"
        },
        {
          "internalType": "uint256",
          "name": "value",
          "type": "uint256"
        }
      ],
      "name": "transfer",
      "outputs": [
        {
          "internalType": "bool",
          "name": "",
          "type": "bool"
        }
      ],
      "stateMutability": "nonpayable",
      "type": "function"
    },
    {
      "inputs": [
        {
          "internalType": "address",
          "name": "from",
          "type": "address"
        },
        {
          "internalType": "address",
          "name": "to",
          "type": "address"
        },
        {
          "internalType": "uint256",
          "name": "value",
          "type": "uint256"
        }
      ],
      "name": "transferFrom",
      "outputs": [
        {
          "internalType": "bool",
          "name": "",
          "type": "bool"
        }
      ],
      "stateMutability": "nonpayable",
      "type": "function"
    },
    {
      "inputs": [
        {
          "internalType": "address",
          "name": "newOwner",
          "type": "address"
        }
      ],
      "name": "transferOwnership",
      "outputs": [],
      "stateMutability": "nonpayable",
      "type": "function"
    },
    {
      "inputs": [],
      "name": "GetName",
      "outputs": [
        {
          "internalType": "string",
          "name": "",
          "type": "string"
        }
      ],
      "stateMutability": "nonpayable",
      "type": "function"
    },
    {
      "inputs": [],
      "name": "GetDescription",
      "outputs": [
        {
          "internalType": "string",
          "name": "",
          "type": "string"
        }
      ],
      "stateMutability": "nonpayable",
      "type": "function"
    }
  ],
  "bytecode": "0x608060405234801562000010575f80fd5b506103e86040518060400160405280600d81526020017f537465707320436f756e746572000000000000000000000000000000000000008152506040518060400160405280600381526020017f5354500000000000000000000000000000000000000000000000000000000000815250335f73ffffffffffffffffffffffffffffffffffffffff168173ffffffffffffffffffffffffffffffffffffffff1603620000f4575f6040517f1e4fbdf7000000000000000000000000000000000000000000000000000000008152600401620000eb91906200023e565b60405180910390fd5b62000105816200013a60201b60201c565b508160049081620001179190620004bd565b508060059081620001299190620004bd565b5050508060088190555050620005a1565b5f805f9054906101000a900473ffffffffffffffffffffffffffffffffffffffff169050815f806101000a81548173ffffffffffffffffffffffffffffffffffffffff021916908373ffffffffffffffffffffffffffffffffffffffff1602179055508173ffffffffffffffffffffffffffffffffffffffff168173ffffffffffffffffffffffffffffffffffffffff167f8be0079c531659141344cd1fd0a4f28419497f9722a3daafe3b4186f6b6457e060405160405180910390a35050565b5f73ffffffffffffffffffffffffffffffffffffffff82169050919050565b5f6200022682620001fb565b9050919050565b62000238816200021a565b82525050565b5f602082019050620002535f8301846200022d565b92915050565b5f81519050919050565b7f4e487b71000000000000000000000000000000000000000000000000000000005f52604160045260245ffd5b7f4e487b71000000000000000000000000000000000000000000000000000000005f52602260045260245ffd5b5f6002820490506001821680620002d557607f821691505b602082108103620002eb57620002ea62000290565b5b50919050565b5f819050815f5260205f209050919050565b5f6020601f8301049050919050565b5f82821b905092915050565b5f600883026200034f7fffffffffffffffffffffffffffffffffffffffffffffffffffffffffffffffff8262000312565b6200035b868362000312565b95508019841693508086168417925050509392505050565b5f819050919050565b5f819050919050565b5f620003a56200039f620003998462000373565b6200037c565b62000373565b9050919050565b5f819050919050565b620003c08362000385565b620003d8620003cf82620003ac565b8484546200031e565b825550505050565b5f90565b620003ee620003e0565b620003fb818484620003b5565b505050565b5b818110156200042257620004165f82620003e4565b60018101905062000401565b5050565b601f82111562000471576200043b81620002f1565b620004468462000303565b8101602085101562000456578190505b6200046e620004658562000303565b83018262000400565b50505b505050565b5f82821c905092915050565b5f620004935f198460080262000476565b1980831691505092915050565b5f620004ad838362000482565b9150826002028217905092915050565b620004c88262000259565b67ffffffffffffffff811115620004e457620004e362000263565b5b620004f08254620002bd565b620004fd82828562000426565b5f60209050601f83116001811462000533575f84156200051e578287015190505b6200052a8582620004a0565b86555062000599565b601f1984166200054386620002f1565b5f5b828110156200056c5784890151825560018201915060208501945060208101905062000545565b868310156200058c578489015162000588601f89168262000482565b8355505b6001600288020188555050505b505050505050565b61191880620005af5f395ff3fe608060405234801561000f575f80fd5b5060043610610135575f3560e01c806370a08231116100b6578063a9059cbb1161007a578063a9059cbb1461033b578063c04ab1441461036b578063d9daab9b14610387578063dd62ed3e146103a5578063f2fde38b146103d5578063fe704a9d146103f157610135565b806370a08231146102a9578063715018a6146102d95780637b7816e4146102e35780638da5cb5b146102ff57806395d89b411461031d57610135565b80632229b9f0116100fd5780632229b9f0146101dd57806323b872dd1461020d578063313ce5671461023d57806334f20ec61461025b5780633b6095f51461027957610135565b806306fdde0314610139578063095ea7b31461015757806318160ddd146101875780631bc20b34146101a55780631d4ac8c3146101c1575b5f80fd5b61014161040f565b60405161014e9190611325565b60405180910390f35b610171600480360381019061016c91906113d6565b61049f565b60405161017e919061142e565b60405180910390f35b61018f6104c1565b60405161019c9190611456565b60405180910390f35b6101bf60048036038101906101ba919061146f565b6104ca565b005b6101db60048036038101906101d6919061149a565b610515565b005b6101f760048036038101906101f2919061146f565b61072d565b6040516102049190611456565b60405180910390f35b610227600480360381019061022291906114c5565b610773565b604051610234919061142e565b60405180910390f35b6102456107a1565b6040516102529190611530565b60405180910390f35b6102636107a5565b6040516102709190611456565b60405180910390f35b610293600480360381019061028e919061146f565b6107ae565b6040516102a09190611456565b60405180910390f35b6102c360048036038101906102be919061146f565b6107bf565b6040516102d09190611456565b60405180910390f35b6102e1610805565b005b6102fd60048036038101906102f891906113d6565b610818565b005b610307610881565b6040516103149190611558565b60405180910390f35b6103256108a8565b6040516103329190611325565b60405180910390f35b610355600480360381019061035091906113d6565b610938565b604051610362919061142e565b60405180910390f35b6103856004803603810190610380919061149a565b61095a565b005b61038f61096c565b60405161039c9190611325565b60405180910390f35b6103bf60048036038101906103ba9190611571565b61098c565b6040516103cc9190611456565b60405180910390f35b6103ef60048036038101906103ea919061146f565b610a0e565b005b6103f9610a92565b6040516104069190611325565b60405180910390f35b60606004805461041e906115dc565b80601f016020809104026020016040519081016040528092919081815260200182805461044a906115dc565b80156104955780601f1061046c57610100808354040283529160200191610495565b820191905f5260205f20905b81548152906001019060200180831161047857829003601f168201915b5050505050905090565b5f806104a9610acf565b90506104b6818585610ad6565b600191505092915050565b5f600754905090565b6104d2610ae8565b8060065f6101000a81548173ffffffffffffffffffffffffffffffffffffffff021916908373ffffffffffffffffffffffffffffffffffffffff16021790555050565b5f3073ffffffffffffffffffffffffffffffffffffffff166334f20ec66040518163ffffffff1660e01b81526004016020604051808303815f875af1158015610560573d5f803e3d5ffd5b505050506040513d601f19601f820116820180604052508101906105849190611620565b8261058f9190611678565b146105cf576040517f08c379a00000000000000000000000000000000000000000000000000000000081526004016105c690611718565b60405180910390fd5b806105d9336107bf565b101561061a576040517f08c379a0000000000000000000000000000000000000000000000000000000008152600401610611906117a6565b60405180910390fd5b5f3073ffffffffffffffffffffffffffffffffffffffff166334f20ec66040518163ffffffff1660e01b81526004016020604051808303815f875af1158015610665573d5f803e3d5ffd5b505050506040513d601f19601f820116820180604052508101906106899190611620565b8261069491906117f1565b90506106a03383610b6f565b60065f9054906101000a900473ffffffffffffffffffffffffffffffffffffffff1673ffffffffffffffffffffffffffffffffffffffff166340c10f1933836040518363ffffffff1660e01b81526004016106fc929190611821565b5f604051808303815f87803b158015610713575f80fd5b505af1158015610725573d5f803e3d5ffd5b505050505050565b5f60095f8373ffffffffffffffffffffffffffffffffffffffff1673ffffffffffffffffffffffffffffffffffffffff1681526020019081526020015f20549050919050565b5f8061077d610acf565b905061078a858285610bee565b610795858585610c80565b60019150509392505050565b5f90565b5f600854905090565b5f6107b8826107bf565b9050919050565b5f60015f8373ffffffffffffffffffffffffffffffffffffffff1673ffffffffffffffffffffffffffffffffffffffff1681526020019081526020015f20549050919050565b61080d610ae8565b6108165f610d70565b565b610820610ae8565b61082a8282610e31565b8060095f8473ffffffffffffffffffffffffffffffffffffffff1673ffffffffffffffffffffffffffffffffffffffff1681526020019081526020015f205f8282546108769190611848565b925050819055505050565b5f805f9054906101000a900473ffffffffffffffffffffffffffffffffffffffff16905090565b6060600580546108b7906115dc565b80601f01602080910402602001604051908101604052809291908181526020018280546108e3906115dc565b801561092e5780601f106109055761010080835404028352916020019161092e565b820191905f5260205f20905b81548152906001019060200180831161091157829003601f168201915b5050505050905090565b5f80610942610acf565b905061094f818585610c80565b600191505092915050565b610962610ae8565b8060088190555050565b60606040518060600160405280603281526020016118b160329139905090565b5f60025f8473ffffffffffffffffffffffffffffffffffffffff1673ffffffffffffffffffffffffffffffffffffffff1681526020019081526020015f205f8373ffffffffffffffffffffffffffffffffffffffff1673ffffffffffffffffffffffffffffffffffffffff1681526020019081526020015f2054905092915050565b610a16610ae8565b5f73ffffffffffffffffffffffffffffffffffffffff168173ffffffffffffffffffffffffffffffffffffffff1603610a86575f6040517f1e4fbdf7000000000000000000000000000000000000000000000000000000008152600401610a7d9190611558565b60405180910390fd5b610a8f81610d70565b50565b60606040518060400160405280600d81526020017f537465707320436f756e74657200000000000000000000000000000000000000815250905090565b5f33905090565b610ae38383836001610eb0565b505050565b610af0610acf565b73ffffffffffffffffffffffffffffffffffffffff16610b0e610881565b73ffffffffffffffffffffffffffffffffffffffff1614610b6d57610b31610acf565b6040517f118cdaa7000000000000000000000000000000000000000000000000000000008152600401610b649190611558565b60405180910390fd5b565b5f73ffffffffffffffffffffffffffffffffffffffff168273ffffffffffffffffffffffffffffffffffffffff1603610bdf575f6040517f96c6fd1e000000000000000000000000000000000000000000000000000000008152600401610bd69190611558565b60405180910390fd5b610bea825f8361107f565b5050565b5f610bf9848461098c565b90507fffffffffffffffffffffffffffffffffffffffffffffffffffffffffffffffff8114610c7a5781811015610c6b578281836040517ffb8f41b2000000000000000000000000000000000000000000000000000000008152600401610c629392919061187b565b60405180910390fd5b610c7984848484035f610eb0565b5b50505050565b5f73ffffffffffffffffffffffffffffffffffffffff168373ffffffffffffffffffffffffffffffffffffffff1603610cf0575f6040517f96c6fd1e000000000000000000000000000000000000000000000000000000008152600401610ce79190611558565b60405180910390fd5b5f73ffffffffffffffffffffffffffffffffffffffff168273ffffffffffffffffffffffffffffffffffffffff1603610d60575f6040517fec442f05000000000000000000000000000000000000000000000000000000008152600401610d579190611558565b60405180910390fd5b610d6b83838361107f565b505050565b5f805f9054906101000a900473ffffffffffffffffffffffffffffffffffffffff169050815f806101000a81548173ffffffffffffffffffffffffffffffffffffffff021916908373ffffffffffffffffffffffffffffffffffffffff1602179055508173ffffffffffffffffffffffffffffffffffffffff168173ffffffffffffffffffffffffffffffffffffffff167f8be0079c531659141344cd1fd0a4f28419497f9722a3daafe3b4186f6b6457e060405160405180910390a35050565b5f73ffffffffffffffffffffffffffffffffffffffff168273ffffffffffffffffffffffffffffffffffffffff1603610ea1575f6040517fec442f05000000000000000000000000000000000000000000000000000000008152600401610e989190611558565b60405180910390fd5b610eac5f838361107f565b5050565b5f73ffffffffffffffffffffffffffffffffffffffff168473ffffffffffffffffffffffffffffffffffffffff1603610f20575f6040517fe602df05000000000000000000000000000000000000000000000000000000008152600401610f179190611558565b60405180910390fd5b5f73ffffffffffffffffffffffffffffffffffffffff168373ffffffffffffffffffffffffffffffffffffffff1603610f90575f6040517f94280d62000000000000000000000000000000000000000000000000000000008152600401610f879190611558565b60405180910390fd5b8160025f8673ffffffffffffffffffffffffffffffffffffffff1673ffffffffffffffffffffffffffffffffffffffff1681526020019081526020015f205f8573ffffffffffffffffffffffffffffffffffffffff1673ffffffffffffffffffffffffffffffffffffffff1681526020019081526020015f20819055508015611079578273ffffffffffffffffffffffffffffffffffffffff168473ffffffffffffffffffffffffffffffffffffffff167f8c5be1e5ebec7d5bd14f71427d1e84f3dd0314c0f7b2291e5b200ac8c7c3b925846040516110709190611456565b60405180910390a35b50505050565b5f73ffffffffffffffffffffffffffffffffffffffff168373ffffffffffffffffffffffffffffffffffffffff16036110cf578060035f8282546110c39190611848565b9250508190555061119f565b5f60015f8573ffffffffffffffffffffffffffffffffffffffff1673ffffffffffffffffffffffffffffffffffffffff1681526020019081526020015f2054905081811015611159578381836040517fe450d38c0000000000000000000000000000000000000000000000000000000081526004016111509392919061187b565b60405180910390fd5b81810360015f8673ffffffffffffffffffffffffffffffffffffffff1673ffffffffffffffffffffffffffffffffffffffff1681526020019081526020015f2081905550505b5f73ffffffffffffffffffffffffffffffffffffffff168273ffffffffffffffffffffffffffffffffffffffff16036111e6578060035f8282540392505081905550611231565b8060015f8473ffffffffffffffffffffffffffffffffffffffff1673ffffffffffffffffffffffffffffffffffffffff1681526020019081526020015f205f82825401925050819055505b8173ffffffffffffffffffffffffffffffffffffffff168373ffffffffffffffffffffffffffffffffffffffff167fddf252ad1be2c89b69c2b068fc378daa952ba7f163c4a11628f55a4df523b3ef8360405161128e9190611456565b60405180910390a3505050565b5f81519050919050565b5f82825260208201905092915050565b5f5b838110156112d25780820151818401526020810190506112b7565b5f8484015250505050565b5f601f19601f8301169050919050565b5f6112f78261129b565b61130181856112a5565b93506113118185602086016112b5565b61131a816112dd565b840191505092915050565b5f6020820190508181035f83015261133d81846112ed565b905092915050565b5f80fd5b5f73ffffffffffffffffffffffffffffffffffffffff82169050919050565b5f61137282611349565b9050919050565b61138281611368565b811461138c575f80fd5b50565b5f8135905061139d81611379565b92915050565b5f819050919050565b6113b5816113a3565b81146113bf575f80fd5b50565b5f813590506113d0816113ac565b92915050565b5f80604083850312156113ec576113eb611345565b5b5f6113f98582860161138f565b925050602061140a858286016113c2565b9150509250929050565b5f8115159050919050565b61142881611414565b82525050565b5f6020820190506114415f83018461141f565b92915050565b611450816113a3565b82525050565b5f6020820190506114695f830184611447565b92915050565b5f6020828403121561148457611483611345565b5b5f6114918482850161138f565b91505092915050565b5f602082840312156114af576114ae611345565b5b5f6114bc848285016113c2565b91505092915050565b5f805f606084860312156114dc576114db611345565b5b5f6114e98682870161138f565b93505060206114fa8682870161138f565b925050604061150b868287016113c2565b9150509250925092565b5f60ff82169050919050565b61152a81611515565b82525050565b5f6020820190506115435f830184611521565b92915050565b61155281611368565b82525050565b5f60208201905061156b5f830184611549565b92915050565b5f806040838503121561158757611586611345565b5b5f6115948582860161138f565b92505060206115a58582860161138f565b9150509250929050565b7f4e487b71000000000000000000000000000000000000000000000000000000005f52602260045260245ffd5b5f60028204905060018216806115f357607f821691505b602082108103611606576116056115af565b5b50919050565b5f8151905061161a816113ac565b92915050565b5f6020828403121561163557611634611345565b5b5f6116428482850161160c565b91505092915050565b7f4e487b71000000000000000000000000000000000000000000000000000000005f52601260045260245ffd5b5f611682826113a3565b915061168d836113a3565b92508261169d5761169c61164b565b5b828206905092915050565b7f416d6f756e74206d7573742062652061206d756c7469706c65206f66207365745f8201527f2052617465000000000000000000000000000000000000000000000000000000602082015250565b5f6117026025836112a5565b915061170d826116a8565b604082019050919050565b5f6020820190508181035f83015261172f816116f6565b9050919050565b7f596f75206d7573742068617665206d6f7265206163746976697479207468616e5f8201527f20796f7520726571756573740000000000000000000000000000000000000000602082015250565b5f611790602c836112a5565b915061179b82611736565b604082019050919050565b5f6020820190508181035f8301526117bd81611784565b9050919050565b7f4e487b71000000000000000000000000000000000000000000000000000000005f52601160045260245ffd5b5f6117fb826113a3565b9150611806836113a3565b9250826118165761181561164b565b5b828204905092915050565b5f6040820190506118345f830185611549565b6118416020830184611447565b9392505050565b5f611852826113a3565b915061185d836113a3565b9250828201905080821115611875576118746117c4565b5b92915050565b5f60608201905061188e5f830186611549565b61189b6020830185611447565b6118a86040830184611447565b94935050505056fe426f6e757320666f722073746570732e204576657279203130303020737465707320657175616c20746f203120746f6b656ea2646970667358221220af19d129857b4754b38556573aa2b6473cceb54abe9332dc8ba7d9274988590764736f6c63430008140033",
  "immutableReferences": {},
  "source": "// SPDX-License-Identifier: UNLICENSED\npragma solidity ^0.8.20;\n\nimport \"./../AbstractHobby.sol\";\n\ncontract StepsCounter is AbstractHobby {\n    constructor() ERC20(\"Steps Counter\", \"STP\") AbstractHobby(1000){\n    }\n\n    function GetName() public returns (string memory) {\n        return \"Steps Counter\";\n    }\n\n    function GetDescription() public returns (string memory) {\n        return \"Bonus for steps. Every 1000 steps equal to 1 token\";\n    }\n}\n\n",
  "sourcePath": "/Users/andrei/MyDapp/contracts/Hobbies/StepsCounter.sol",
  "compiler": {
    "name": "solc",
    "version": "0.8.20+commit.a1b79de6.Emscripten.clang"
  },
  "schemaVersion": "3.4.14",
  "updatedAt": "2024-04-21T07:22:18.980Z",
  "networkType": "ethereum",
  "devdoc": {
    "errors": {
      "ERC20InsufficientAllowance(address,uint256,uint256)": [
        {
          "details": "Indicates a failure with the `spender`s `allowance`. Used in transfers.",
          "params": {
            "allowance": "Amount of tokens a `spender` is allowed to operate with.",
            "needed": "Minimum amount required to perform a transfer.",
            "spender": "Address that may be allowed to operate on tokens without being their owner."
          }
        }
      ],
      "ERC20InsufficientBalance(address,uint256,uint256)": [
        {
          "details": "Indicates an error related to the current `balance` of a `sender`. Used in transfers.",
          "params": {
            "balance": "Current balance for the interacting account.",
            "needed": "Minimum amount required to perform a transfer.",
            "sender": "Address whose tokens are being transferred."
          }
        }
      ],
      "ERC20InvalidApprover(address)": [
        {
          "details": "Indicates a failure with the `approver` of a token to be approved. Used in approvals.",
          "params": {
            "approver": "Address initiating an approval operation."
          }
        }
      ],
      "ERC20InvalidReceiver(address)": [
        {
          "details": "Indicates a failure with the token `receiver`. Used in transfers.",
          "params": {
            "receiver": "Address to which tokens are being transferred."
          }
        }
      ],
      "ERC20InvalidSender(address)": [
        {
          "details": "Indicates a failure with the token `sender`. Used in transfers.",
          "params": {
            "sender": "Address whose tokens are being transferred."
          }
        }
      ],
      "ERC20InvalidSpender(address)": [
        {
          "details": "Indicates a failure with the `spender` to be approved. Used in approvals.",
          "params": {
            "spender": "Address that may be allowed to operate on tokens without being their owner."
          }
        }
      ],
      "OwnableInvalidOwner(address)": [
        {
          "details": "The owner is not a valid owner account. (eg. `address(0)`)"
        }
      ],
      "OwnableUnauthorizedAccount(address)": [
        {
          "details": "The caller account is not authorized to perform an operation."
        }
      ]
    },
    "events": {
      "Approval(address,address,uint256)": {
        "details": "Emitted when the allowance of a `spender` for an `owner` is set by a call to {approve}. `value` is the new allowance."
      },
      "Transfer(address,address,uint256)": {
        "details": "Emitted when `value` tokens are moved from one account (`from`) to another (`to`). Note that `value` may be zero."
      }
    },
    "kind": "dev",
    "methods": {
      "allowance(address,address)": {
        "details": "See {IERC20-allowance}."
      },
      "approve(address,uint256)": {
        "details": "See {IERC20-approve}. NOTE: If `value` is the maximum `uint256`, the allowance is not updated on `transferFrom`. This is semantically equivalent to an infinite approval. Requirements: - `spender` cannot be the zero address."
      },
      "balanceOf(address)": {
        "details": "See {IERC20-balanceOf}."
      },
      "decimals()": {
        "details": "Returns the number of decimals used to get its user representation. For example, if `decimals` equals `2`, a balance of `505` tokens should be displayed to a user as `5.05` (`505 / 10 ** 2`). Tokens usually opt for a value of 18, imitating the relationship between Ether and Wei. This is the default value returned by this function, unless it's overridden. NOTE: This information is only used for _display_ purposes: it in no way affects any of the arithmetic of the contract, including {IERC20-balanceOf} and {IERC20-transfer}."
      },
      "name()": {
        "details": "Returns the name of the token."
      },
      "owner()": {
        "details": "Returns the address of the current owner."
      },
      "renounceOwnership()": {
        "details": "Leaves the contract without owner. It will not be possible to call `onlyOwner` functions. Can only be called by the current owner. NOTE: Renouncing ownership will leave the contract without an owner, thereby disabling any functionality that is only available to the owner."
      },
      "symbol()": {
        "details": "Returns the symbol of the token, usually a shorter version of the name."
      },
      "totalSupply()": {
        "details": "See {IERC20-totalSupply}."
      },
      "transfer(address,uint256)": {
        "details": "See {IERC20-transfer}. Requirements: - `to` cannot be the zero address. - the caller must have a balance of at least `value`."
      },
      "transferFrom(address,address,uint256)": {
        "details": "See {IERC20-transferFrom}. Emits an {Approval} event indicating the updated allowance. This is not required by the EIP. See the note at the beginning of {ERC20}. NOTE: Does not update the allowance if the current allowance is the maximum `uint256`. Requirements: - `from` and `to` cannot be the zero address. - `from` must have a balance of at least `value`. - the caller must have allowance for ``from``'s tokens of at least `value`."
      },
      "transferOwnership(address)": {
        "details": "Transfers ownership of the contract to a new account (`newOwner`). Can only be called by the current owner."
      }
    },
    "version": 1
  },
  "userdoc": {
    "kind": "user",
    "methods": {},
    "version": 1
  }
}